{
  "contractName": "Dbank",
  "abi": [
    {
      "inputs": [],
      "payable": true,
      "stateMutability": "payable",
      "type": "constructor"
    },
    {
      "anonymous": false,
      "inputs": [
        {
          "indexed": false,
          "internalType": "address",
          "name": "accAddress",
          "type": "address"
        },
        {
          "indexed": false,
          "internalType": "uint256",
          "name": "amount",
          "type": "uint256"
        }
      ],
      "name": "depositMade",
      "type": "event"
    },
    {
      "constant": true,
      "inputs": [
        {
          "internalType": "address",
          "name": "",
          "type": "address"
        }
      ],
      "name": "Balance",
      "outputs": [
        {
          "internalType": "uint256",
          "name": "",
          "type": "uint256"
        }
      ],
      "payable": false,
      "stateMutability": "view",
      "type": "function"
    },
    {
      "constant": true,
      "inputs": [],
      "name": "totalAccount",
      "outputs": [
        {
          "internalType": "uint256",
          "name": "",
          "type": "uint256"
        }
      ],
      "payable": false,
      "stateMutability": "view",
      "type": "function"
    },
    {
      "constant": false,
      "inputs": [],
      "name": "initAccount",
      "outputs": [
        {
          "internalType": "uint256",
          "name": "",
          "type": "uint256"
        }
      ],
      "payable": true,
      "stateMutability": "payable",
      "type": "function"
    },
    {
      "constant": false,
      "inputs": [
        {
          "internalType": "uint256",
          "name": "amount",
          "type": "uint256"
        }
      ],
      "name": "deposit",
      "outputs": [
        {
          "internalType": "uint256",
          "name": "",
          "type": "uint256"
        }
      ],
      "payable": true,
      "stateMutability": "payable",
      "type": "function"
    },
    {
      "constant": false,
      "inputs": [
        {
          "internalType": "uint256",
          "name": "amount",
          "type": "uint256"
        }
      ],
      "name": "withDraw",
      "outputs": [],
      "payable": true,
      "stateMutability": "payable",
      "type": "function"
    },
    {
      "constant": true,
      "inputs": [
        {
          "internalType": "address",
          "name": "a",
          "type": "address"
        }
      ],
      "name": "getBalance",
      "outputs": [
        {
          "internalType": "uint256",
          "name": "",
          "type": "uint256"
        }
      ],
      "payable": false,
      "stateMutability": "view",
      "type": "function"
    }
  ],
  "bytecode": "0x6080604052670de0b6b3a76400006002556000600155610210806100246000396000f3fe6080604052600436106100555760003560e01c806314174f331461005a578063239fcf0f146100795780634ec1ce21146100be578063b6b55f25146100c6578063f8b2cb4f146100e3578063ffdc61f714610116575b600080fd5b6100776004803603602081101561007057600080fd5b503561012b565b005b34801561008557600080fd5b506100ac6004803603602081101561009c57600080fd5b50356001600160a01b031661015f565b60408051918252519081900360200190f35b6100ac610171565b6100ac600480360360208110156100dc57600080fd5b503561018f565b3480156100ef57600080fd5b506100ac6004803603602081101561010657600080fd5b50356001600160a01b03166101ba565b34801561012257600080fd5b506100ac6101d5565b6002546040513391830280156108fc02916000818181858888f1935050505015801561015b573d6000803e3d6000fd5b5050565b60006020819052908152604090205481565b33600090815260208190526040902034815560018054810190555490565b600080821161019d57600080fd5b503360009081526020819052604090208054820190819055919050565b6001600160a01b031660009081526020819052604090205490565b6001548156fea265627a7a723158209ce86c43d13bbfa0f6cd7e51b2d1968e6fc53dd6b4141367539228657ce969c064736f6c634300050c0032",
  "source": "pragma solidity ^0.5.0;\n\ncontract Dbank {\n    // Balance will store the deposit ether of each address\n    mapping(address => uint256) public Balance;\n    event depositMade(address accAddress, uint256 amount);\n    uint256 public totalAccount;\n    uint256 convertor = 1000000000000000000;\n\n    constructor() public payable {\n        totalAccount = 0;\n\n    }\n\n    function initAccount() public payable returns (uint256) {\n        Balance[msg.sender] = msg.value;\n        totalAccount++;\n        return (Balance[msg.sender]);\n    }\n\n    function deposit(uint256 amount) public payable returns (uint256) {\n        require(amount > 0);\n        Balance[msg.sender] += amount;\n\n        //      emit depositMade(msg.sender, amount);\n        return Balance[msg.sender];\n    }\n\n    function withDraw(uint256 amount) public payable {\n        msg.sender.transfer(amount * convertor);\n\n    }\n\n    function getBalance(address a) public view returns (uint256) {\n        return Balance[a];\n    }\n\n}\n",
  "sourcePath": "/root/Desktop/HackVerse/contracts/Dbank.sol",
  "compiler": {
    "name": "solc",
    "version": "0.5.12+commit.7709ece9.Emscripten.clang"
  },
  "schemaVersion": "3.0.19",
  "updatedAt": "2020-01-25T11:17:20.272Z",
  "networkType": "ethereum",
  "devdoc": {
    "methods": {}
  },
  "userdoc": {
    "methods": {}
  }
}